{
  "_format": "hh-sol-artifact-1",
  "contractName": "BaseBridge",
  "sourceName": "contracts/BaseBridge.sol",
  "abi": [
    {
      "anonymous": false,
      "inputs": [
        {
          "indexed": false,
          "internalType": "bytes32",
          "name": "root",
          "type": "bytes32"
        },
        {
          "indexed": false,
          "internalType": "uint256",
          "name": "timestamp",
          "type": "uint256"
        }
      ],
      "name": "ReserveCommitted",
      "type": "event"
    },
    {
      "inputs": [
        {
          "internalType": "bytes32",
          "name": "root",
          "type": "bytes32"
        },
        {
          "internalType": "uint256",
          "name": "timestamp",
          "type": "uint256"
        }
      ],
      "name": "commit",
      "outputs": [],
      "stateMutability": "nonpayable",
      "type": "function"
    }
  ],
  "bytecode": "0x608060405234801561001057600080fd5b506101b7806100206000396000f3fe608060405234801561001057600080fd5b506004361061002b5760003560e01c8063e900ead814610030575b600080fd5b61004a600480360381019061004591906100fa565b61004c565b005b7f38c70f90bc0fa496bb9c2efdb853e7d3c00239b2264480df5c646bda80599174828260405161007d929190610158565b60405180910390a15050565b600080fd5b6000819050919050565b6100a18161008e565b81146100ac57600080fd5b50565b6000813590506100be81610098565b92915050565b6000819050919050565b6100d7816100c4565b81146100e257600080fd5b50565b6000813590506100f4816100ce565b92915050565b6000806040838503121561011157610110610089565b5b600061011f858286016100af565b9250506020610130858286016100e5565b9150509250929050565b6101438161008e565b82525050565b610152816100c4565b82525050565b600060408201905061016d600083018561013a565b61017a6020830184610149565b939250505056fea2646970667358221220a1312f66b482efb91b7efbe8c801e98d80489ad2c910c9555ea43a88fc21d1c464736f6c63430008140033",
  "linkReferences": {},
  "deployedLinkReferences": {}
}